{
  "contractName": "UserDetails",
  "abi": [
    {
      "inputs": [],
      "stateMutability": "nonpayable",
      "type": "constructor"
    },
    {
      "anonymous": false,
      "inputs": [
        {
          "indexed": false,
          "internalType": "string",
          "name": "userId",
          "type": "string"
        },
        {
          "indexed": false,
          "internalType": "string",
          "name": "first_name",
          "type": "string"
        },
        {
          "indexed": false,
          "internalType": "string",
          "name": "last_name",
          "type": "string"
        },
        {
          "indexed": false,
          "internalType": "string",
          "name": "email_id",
          "type": "string"
        }
      ],
      "name": "userCreated",
      "type": "event"
    },
    {
      "inputs": [],
      "name": "length",
      "outputs": [
        {
          "internalType": "uint256",
          "name": "",
          "type": "uint256"
        }
      ],
      "stateMutability": "view",
      "type": "function",
      "constant": true
    },
    {
      "inputs": [],
      "name": "newUser",
      "outputs": [
        {
          "internalType": "string",
          "name": "userId",
          "type": "string"
        },
        {
          "internalType": "string",
          "name": "first_name",
          "type": "string"
        },
        {
          "internalType": "string",
          "name": "last_name",
          "type": "string"
        },
        {
          "internalType": "string",
          "name": "email_id",
          "type": "string"
        }
      ],
      "stateMutability": "view",
      "type": "function",
      "constant": true
    },
    {
      "inputs": [],
      "name": "owner",
      "outputs": [
        {
          "internalType": "address",
          "name": "",
          "type": "address"
        }
      ],
      "stateMutability": "view",
      "type": "function",
      "constant": true
    },
    {
      "inputs": [
        {
          "internalType": "string",
          "name": "",
          "type": "string"
        }
      ],
      "name": "users",
      "outputs": [
        {
          "internalType": "string",
          "name": "userId",
          "type": "string"
        },
        {
          "internalType": "string",
          "name": "first_name",
          "type": "string"
        },
        {
          "internalType": "string",
          "name": "last_name",
          "type": "string"
        },
        {
          "internalType": "string",
          "name": "email_id",
          "type": "string"
        }
      ],
      "stateMutability": "view",
      "type": "function",
      "constant": true
    },
    {
      "inputs": [
        {
          "internalType": "string",
          "name": "_id",
          "type": "string"
        },
        {
          "internalType": "string",
          "name": "firstName",
          "type": "string"
        },
        {
          "internalType": "string",
          "name": "lastName",
          "type": "string"
        },
        {
          "internalType": "string",
          "name": "emailId",
          "type": "string"
        }
      ],
      "name": "createNewUser",
      "outputs": [],
      "stateMutability": "nonpayable",
      "type": "function"
    }
  ],
  "bytecode": "0x608060405234801561001057600080fd5b5033600660006101000a81548173ffffffffffffffffffffffffffffffffffffffff021916908373ffffffffffffffffffffffffffffffffffffffff160217905550610f11806100616000396000f3fe608060405234801561001057600080fd5b50600436106100575760003560e01c80631f7b6d321461005c578063689e1c031461007a5780636cebad98146100ad5780638da5cb5b146100ce578063c14b2ace146100ec575b600080fd5b610064610108565b604051610071919061089d565b60405180910390f35b610094600480360381019061008f9190610a12565b61010e565b6040516100a49493929190610ae3565b60405180910390f35b6100b5610374565b6040516100c59493929190610ae3565b60405180910390f35b6100d66105b2565b6040516100e39190610b85565b60405180910390f35b61010660048036038101906101019190610ba0565b6105d8565b005b60055481565b60008180516020810182018051848252602083016020850120818352809550505050505060009150905080600001805461014790610ca6565b80601f016020809104026020016040519081016040528092919081815260200182805461017390610ca6565b80156101c05780601f10610195576101008083540402835291602001916101c0565b820191906000526020600020905b8154815290600101906020018083116101a357829003601f168201915b5050505050908060010180546101d590610ca6565b80601f016020809104026020016040519081016040528092919081815260200182805461020190610ca6565b801561024e5780601f106102235761010080835404028352916020019161024e565b820191906000526020600020905b81548152906001019060200180831161023157829003601f168201915b50505050509080600201805461026390610ca6565b80601f016020809104026020016040519081016040528092919081815260200182805461028f90610ca6565b80156102dc5780601f106102b1576101008083540402835291602001916102dc565b820191906000526020600020905b8154815290600101906020018083116102bf57829003601f168201915b5050505050908060030180546102f190610ca6565b80601f016020809104026020016040519081016040528092919081815260200182805461031d90610ca6565b801561036a5780601f1061033f5761010080835404028352916020019161036a565b820191906000526020600020905b81548152906001019060200180831161034d57829003601f168201915b5050505050905084565b600180600001805461038590610ca6565b80601f01602080910402602001604051908101604052809291908181526020018280546103b190610ca6565b80156103fe5780601f106103d3576101008083540402835291602001916103fe565b820191906000526020600020905b8154815290600101906020018083116103e157829003601f168201915b50505050509080600101805461041390610ca6565b80601f016020809104026020016040519081016040528092919081815260200182805461043f90610ca6565b801561048c5780601f106104615761010080835404028352916020019161048c565b820191906000526020600020905b81548152906001019060200180831161046f57829003601f168201915b5050505050908060020180546104a190610ca6565b80601f01602080910402602001604051908101604052809291908181526020018280546104cd90610ca6565b801561051a5780601f106104ef5761010080835404028352916020019161051a565b820191906000526020600020905b8154815290600101906020018083116104fd57829003601f168201915b50505050509080600301805461052f90610ca6565b80601f016020809104026020016040519081016040528092919081815260200182805461055b90610ca6565b80156105a85780601f1061057d576101008083540402835291602001916105a8565b820191906000526020600020905b81548152906001019060200180831161058b57829003601f168201915b5050505050905084565b600660009054906101000a900473ffffffffffffffffffffffffffffffffffffffff1681565b600084511161061c576040517f08c379a000000000000000000000000000000000000000000000000000000000815260040161061390610d24565b60405180910390fd5b6000835111610660576040517f08c379a000000000000000000000000000000000000000000000000000000000815260040161065790610d90565b60405180910390fd5b60008251116106a4576040517f08c379a000000000000000000000000000000000000000000000000000000000815260040161069b90610dfc565b60405180910390fd5b60008151116106e8576040517f08c379a00000000000000000000000000000000000000000000000000000000081526004016106df90610e68565b60405180910390fd5b6040518060800160405280858152602001848152602001838152602001828152506000826040516107199190610ec4565b908152602001604051809103902060008201518160000190805190602001906107439291906107e1565b5060208201518160010190805190602001906107609291906107e1565b50604082015181600201908051906020019061077d9291906107e1565b50606082015181600301908051906020019061079a9291906107e1565b509050507f2f41e0cd6bdaeefa07c19fdeb8877382f42bebe51754c35e5543d87a7a7145cb848484846040516107d39493929190610ae3565b60405180910390a150505050565b8280546107ed90610ca6565b90600052602060002090601f01602090048101928261080f5760008555610856565b82601f1061082857805160ff1916838001178555610856565b82800160010185558215610856579182015b8281111561085557825182559160200191906001019061083a565b5b5090506108639190610867565b5090565b5b80821115610880576000816000905550600101610868565b5090565b6000819050919050565b61089781610884565b82525050565b60006020820190506108b2600083018461088e565b92915050565b6000604051905090565b600080fd5b600080fd5b600080fd5b600080fd5b6000601f19601f8301169050919050565b7f4e487b7100000000000000000000000000000000000000000000000000000000600052604160045260246000fd5b61091f826108d6565b810181811067ffffffffffffffff8211171561093e5761093d6108e7565b5b80604052505050565b60006109516108b8565b905061095d8282610916565b919050565b600067ffffffffffffffff82111561097d5761097c6108e7565b5b610986826108d6565b9050602081019050919050565b82818337600083830152505050565b60006109b56109b084610962565b610947565b9050828152602081018484840111156109d1576109d06108d1565b5b6109dc848285610993565b509392505050565b600082601f8301126109f9576109f86108cc565b5b8135610a098482602086016109a2565b91505092915050565b600060208284031215610a2857610a276108c2565b5b600082013567ffffffffffffffff811115610a4657610a456108c7565b5b610a52848285016109e4565b91505092915050565b600081519050919050565b600082825260208201905092915050565b60005b83811015610a95578082015181840152602081019050610a7a565b83811115610aa4576000848401525b50505050565b6000610ab582610a5b565b610abf8185610a66565b9350610acf818560208601610a77565b610ad8816108d6565b840191505092915050565b60006080820190508181036000830152610afd8187610aaa565b90508181036020830152610b118186610aaa565b90508181036040830152610b258185610aaa565b90508181036060830152610b398184610aaa565b905095945050505050565b600073ffffffffffffffffffffffffffffffffffffffff82169050919050565b6000610b6f82610b44565b9050919050565b610b7f81610b64565b82525050565b6000602082019050610b9a6000830184610b76565b92915050565b60008060008060808587031215610bba57610bb96108c2565b5b600085013567ffffffffffffffff811115610bd857610bd76108c7565b5b610be4878288016109e4565b945050602085013567ffffffffffffffff811115610c0557610c046108c7565b5b610c11878288016109e4565b935050604085013567ffffffffffffffff811115610c3257610c316108c7565b5b610c3e878288016109e4565b925050606085013567ffffffffffffffff811115610c5f57610c5e6108c7565b5b610c6b878288016109e4565b91505092959194509250565b7f4e487b7100000000000000000000000000000000000000000000000000000000600052602260045260246000fd5b60006002820490506001821680610cbe57607f821691505b60208210811415610cd257610cd1610c77565b5b50919050565b7f49642073686f756c64206e6f74206265206e756c6c0000000000000000000000600082015250565b6000610d0e601583610a66565b9150610d1982610cd8565b602082019050919050565b60006020820190508181036000830152610d3d81610d01565b9050919050565b7f4669727374204e616d6520526571756972656400000000000000000000000000600082015250565b6000610d7a601383610a66565b9150610d8582610d44565b602082019050919050565b60006020820190508181036000830152610da981610d6d565b9050919050565b7f4c617374204e616d652052657175697265640000000000000000000000000000600082015250565b6000610de6601283610a66565b9150610df182610db0565b602082019050919050565b60006020820190508181036000830152610e1581610dd9565b9050919050565b7f456d61696c206164647265737320526571756972656400000000000000000000600082015250565b6000610e52601683610a66565b9150610e5d82610e1c565b602082019050919050565b60006020820190508181036000830152610e8181610e45565b9050919050565b600081905092915050565b6000610e9e82610a5b565b610ea88185610e88565b9350610eb8818560208601610a77565b80840191505092915050565b6000610ed08284610e93565b91508190509291505056fea2646970667358221220430e08ebe14dfd99d1d652ec576b115e4b9913a3e3252456b9bd055e01916ddd64736f6c634300080c0033",
  "immutableReferences": {},
  "source": "//SPDX-License-Identifier: MIT\n\npragma solidity ^0.8.12;\n\n\n\ncontract  UserDetails {\n\n\n      struct User  {\n          \n        string  userId;\n        string  first_name;\n        string  last_name;\n        string  email_id;\n    \n      }\n     \n \n      mapping(string => User) public users; \n   \n      \n      User public newUser ;\n     \n      uint public length;\n      address public owner;\n      \n      \n      constructor() {\n          \n          owner = msg.sender;\n      }\n      \n      event userCreated(\n          \n          string  userId,\n          string first_name,\n          string last_name,\n          string email_id\n          \n      );\n      \n      \n      function createNewUser(string memory _id,string memory firstName,string memory lastName,string memory emailId) public  {\n\n\n          \n          require(bytes(_id).length >0 ,\"Id should not be null\");\n          \n          require(bytes(firstName).length > 0 ,\"First Name Required\"); \n          \n          require(bytes(lastName).length>0, \"Last Name Required\");\n          \n          require(bytes(emailId).length>0, \"Email address Required\");\n          \n          users[emailId] = User(_id,firstName,lastName,emailId); \n        \n          \n          //Event to indicate user generated\n         \n          emit userCreated(_id,firstName,lastName,emailId);\n          \n      }\n\n\n      \n    \n}",
  "sourcePath": "C:\\Users\\TNT\\Desktop\\userdetails\\contract\\contracts\\UserDetails.sol",
  "compiler": {
    "name": "solc",
    "version": "0.8.12+commit.f00d7308.Emscripten.clang"
  },
  "schemaVersion": "3.4.3",
  "updatedAt": "2022-06-04T01:00:46.471Z",
  "networkType": "ethereum",
  "devdoc": {
    "kind": "dev",
    "methods": {},
    "version": 1
  },
  "userdoc": {
    "kind": "user",
    "methods": {},
    "version": 1
  }
}