{
  "contractName": "MainPagebc",
  "abi": [
    {
      "inputs": [],
      "stateMutability": "nonpayable",
      "type": "constructor"
    },
    {
      "inputs": [
        {
          "internalType": "string",
          "name": "",
          "type": "string"
        }
      ],
      "name": "buys",
      "outputs": [
        {
          "internalType": "string",
          "name": "productid",
          "type": "string"
        },
        {
          "internalType": "string",
          "name": "name",
          "type": "string"
        },
        {
          "internalType": "string",
          "name": "price",
          "type": "string"
        },
        {
          "internalType": "string",
          "name": "farmer_id",
          "type": "string"
        }
      ],
      "stateMutability": "view",
      "type": "function"
    },
    {
      "inputs": [],
      "name": "length",
      "outputs": [
        {
          "internalType": "uint256",
          "name": "",
          "type": "uint256"
        }
      ],
      "stateMutability": "view",
      "type": "function"
    },
    {
      "inputs": [],
      "name": "newUser",
      "outputs": [
        {
          "internalType": "string",
          "name": "productid",
          "type": "string"
        },
        {
          "internalType": "string",
          "name": "name",
          "type": "string"
        },
        {
          "internalType": "string",
          "name": "price",
          "type": "string"
        },
        {
          "internalType": "string",
          "name": "farmer_id",
          "type": "string"
        }
      ],
      "stateMutability": "view",
      "type": "function"
    },
    {
      "inputs": [],
      "name": "owner",
      "outputs": [
        {
          "internalType": "address",
          "name": "",
          "type": "address"
        }
      ],
      "stateMutability": "view",
      "type": "function"
    },
    {
      "inputs": [
        {
          "internalType": "string",
          "name": "productid",
          "type": "string"
        },
        {
          "internalType": "string",
          "name": "name",
          "type": "string"
        },
        {
          "internalType": "string",
          "name": "price",
          "type": "string"
        },
        {
          "internalType": "string",
          "name": "farmer_id",
          "type": "string"
        }
      ],
      "name": "createNewUser",
      "outputs": [],
      "stateMutability": "nonpayable",
      "type": "function"
    }
  ],
  "bytecode": "0x608060405234801561001057600080fd5b5033600660006101000a81548173ffffffffffffffffffffffffffffffffffffffff021916908373ffffffffffffffffffffffffffffffffffffffff160217905550610bb6806100616000396000f3fe608060405234801561001057600080fd5b50600436106100575760003560e01c80631f7b6d321461005c5780636cebad981461007a5780638d1253921461009b5780638da5cb5b146100ce578063c14b2ace146100ec575b600080fd5b610064610108565b60405161007191906109be565b60405180910390f35b61008261010e565b604051610092949392919061095d565b60405180910390f35b6100b560048036038101906100b0919061079f565b61034c565b6040516100c5949392919061095d565b60405180910390f35b6100d66105b2565b6040516100e39190610942565b60405180910390f35b610106600480360381019061010191906107e0565b6105d8565b005b60055481565b600180600001805461011f90610adf565b80601f016020809104026020016040519081016040528092919081815260200182805461014b90610adf565b80156101985780601f1061016d57610100808354040283529160200191610198565b820191906000526020600020905b81548152906001019060200180831161017b57829003601f168201915b5050505050908060010180546101ad90610adf565b80601f01602080910402602001604051908101604052809291908181526020018280546101d990610adf565b80156102265780601f106101fb57610100808354040283529160200191610226565b820191906000526020600020905b81548152906001019060200180831161020957829003601f168201915b50505050509080600201805461023b90610adf565b80601f016020809104026020016040519081016040528092919081815260200182805461026790610adf565b80156102b45780601f10610289576101008083540402835291602001916102b4565b820191906000526020600020905b81548152906001019060200180831161029757829003601f168201915b5050505050908060030180546102c990610adf565b80601f01602080910402602001604051908101604052809291908181526020018280546102f590610adf565b80156103425780601f1061031757610100808354040283529160200191610342565b820191906000526020600020905b81548152906001019060200180831161032557829003601f168201915b5050505050905084565b60008180516020810182018051848252602083016020850120818352809550505050505060009150905080600001805461038590610adf565b80601f01602080910402602001604051908101604052809291908181526020018280546103b190610adf565b80156103fe5780601f106103d3576101008083540402835291602001916103fe565b820191906000526020600020905b8154815290600101906020018083116103e157829003601f168201915b50505050509080600101805461041390610adf565b80601f016020809104026020016040519081016040528092919081815260200182805461043f90610adf565b801561048c5780601f106104615761010080835404028352916020019161048c565b820191906000526020600020905b81548152906001019060200180831161046f57829003601f168201915b5050505050908060020180546104a190610adf565b80601f01602080910402602001604051908101604052809291908181526020018280546104cd90610adf565b801561051a5780601f106104ef5761010080835404028352916020019161051a565b820191906000526020600020905b8154815290600101906020018083116104fd57829003601f168201915b50505050509080600301805461052f90610adf565b80601f016020809104026020016040519081016040528092919081815260200182805461055b90610adf565b80156105a85780601f1061057d576101008083540402835291602001916105a8565b820191906000526020600020905b81548152906001019060200180831161058b57829003601f168201915b5050505050905084565b600660009054906101000a900473ffffffffffffffffffffffffffffffffffffffff1681565b604051806080016040528085815260200184815260200183815260200182815250600085604051610609919061092b565b90815260200160405180910390206000820151816000019080519060200190610633929190610694565b506020820151816001019080519060200190610650929190610694565b50604082015181600201908051906020019061066d929190610694565b50606082015181600301908051906020019061068a929190610694565b5090505050505050565b8280546106a090610adf565b90600052602060002090601f0160209004810192826106c25760008555610709565b82601f106106db57805160ff1916838001178555610709565b82800160010185558215610709579182015b828111156107085782518255916020019190600101906106ed565b5b509050610716919061071a565b5090565b5b8082111561073357600081600090555060010161071b565b5090565b600061074a61074584610a0a565b6109d9565b90508281526020810184848401111561076257600080fd5b61076d848285610a9d565b509392505050565b600082601f83011261078657600080fd5b8135610796848260208601610737565b91505092915050565b6000602082840312156107b157600080fd5b600082013567ffffffffffffffff8111156107cb57600080fd5b6107d784828501610775565b91505092915050565b600080600080608085870312156107f657600080fd5b600085013567ffffffffffffffff81111561081057600080fd5b61081c87828801610775565b945050602085013567ffffffffffffffff81111561083957600080fd5b61084587828801610775565b935050604085013567ffffffffffffffff81111561086257600080fd5b61086e87828801610775565b925050606085013567ffffffffffffffff81111561088b57600080fd5b61089787828801610775565b91505092959194509250565b6108ac81610a61565b82525050565b60006108bd82610a3a565b6108c78185610a45565b93506108d7818560208601610aac565b6108e081610b6f565b840191505092915050565b60006108f682610a3a565b6109008185610a56565b9350610910818560208601610aac565b80840191505092915050565b61092581610a93565b82525050565b600061093782846108eb565b915081905092915050565b600060208201905061095760008301846108a3565b92915050565b6000608082019050818103600083015261097781876108b2565b9050818103602083015261098b81866108b2565b9050818103604083015261099f81856108b2565b905081810360608301526109b381846108b2565b905095945050505050565b60006020820190506109d3600083018461091c565b92915050565b6000604051905081810181811067ffffffffffffffff82111715610a00576109ff610b40565b5b8060405250919050565b600067ffffffffffffffff821115610a2557610a24610b40565b5b601f19601f8301169050602081019050919050565b600081519050919050565b600082825260208201905092915050565b600081905092915050565b6000610a6c82610a73565b9050919050565b600073ffffffffffffffffffffffffffffffffffffffff82169050919050565b6000819050919050565b82818337600083830152505050565b60005b83811015610aca578082015181840152602081019050610aaf565b83811115610ad9576000848401525b50505050565b60006002820490506001821680610af757607f821691505b60208210811415610b0b57610b0a610b11565b5b50919050565b7f4e487b7100000000000000000000000000000000000000000000000000000000600052602260045260246000fd5b7f4e487b7100000000000000000000000000000000000000000000000000000000600052604160045260246000fd5b6000601f19601f830116905091905056fea26469706673582212203ff0eb240d6333d3989ea4825f64d53080091c8bfed0696c19d4edce036d7a3964736f6c63430008000033",
  "immutableReferences": {},
  "source": "//SPDX-License-Identifier: MIT\n\npragma solidity ^0.8.0;\n\n\n\ncontract  MainPagebc {\n\n\n      struct Buyonce  {\n          \n        string  productid;\n        string  name;\n        string  price;\n        string  farmer_id;\n    \n      }\n     \n \n      mapping(string => Buyonce) public buys; \n   \n      \n      Buyonce public newUser ;\n     \n      uint public length;\n      address public owner;\n      \n      \n      constructor() {\n          \n          owner = msg.sender;\n      }\n      \n      \n      \n      \n      function createNewUser(string memory productid,string memory name,string memory price,string memory farmer_id) public  {\n\n        buys[productid]=Buyonce(productid,name,price,farmer_id);\n          \n      }\n\n\n      \n    \n}",
  "sourcePath": "C:\\Users\\DELL\\Desktop\\bc feednatural\\blockchain feednatural\\backend\\contracts\\MainPage.sol",
  "compiler": {
    "name": "solc",
    "version": "0.8.0+commit.c7dfd78e.Emscripten.clang"
  },
  "schemaVersion": "3.4.4",
  "updatedAt": "2022-06-29T09:54:51.161Z",
  "networkType": "ethereum",
  "devdoc": {
    "kind": "dev",
    "methods": {},
    "version": 1
  },
  "userdoc": {
    "kind": "user",
    "methods": {},
    "version": 1
  }
}