{
  "contractName": "Userbc",
  "abi": [
    {
      "inputs": [],
      "stateMutability": "nonpayable",
      "type": "constructor"
    },
    {
      "inputs": [],
      "name": "length",
      "outputs": [
        {
          "internalType": "uint256",
          "name": "",
          "type": "uint256"
        }
      ],
      "stateMutability": "view",
      "type": "function",
      "constant": true
    },
    {
      "inputs": [],
      "name": "newUser",
      "outputs": [
        {
          "internalType": "string",
          "name": "user_id",
          "type": "string"
        },
        {
          "internalType": "string",
          "name": "hashValue",
          "type": "string"
        },
        {
          "internalType": "string",
          "name": "datetime",
          "type": "string"
        }
      ],
      "stateMutability": "view",
      "type": "function",
      "constant": true
    },
    {
      "inputs": [],
      "name": "owner",
      "outputs": [
        {
          "internalType": "address",
          "name": "",
          "type": "address"
        }
      ],
      "stateMutability": "view",
      "type": "function",
      "constant": true
    },
    {
      "inputs": [
        {
          "internalType": "string",
          "name": "",
          "type": "string"
        }
      ],
      "name": "users",
      "outputs": [
        {
          "internalType": "string",
          "name": "user_id",
          "type": "string"
        },
        {
          "internalType": "string",
          "name": "hashValue",
          "type": "string"
        },
        {
          "internalType": "string",
          "name": "datetime",
          "type": "string"
        }
      ],
      "stateMutability": "view",
      "type": "function",
      "constant": true
    },
    {
      "inputs": [
        {
          "internalType": "string",
          "name": "user_id",
          "type": "string"
        },
        {
          "internalType": "string",
          "name": "hashValue",
          "type": "string"
        },
        {
          "internalType": "string",
          "name": "datetime",
          "type": "string"
        }
      ],
      "name": "createNewUser",
      "outputs": [],
      "stateMutability": "nonpayable",
      "type": "function"
    }
  ],
  "bytecode": "0x608060405234801561001057600080fd5b5033600560006101000a81548173ffffffffffffffffffffffffffffffffffffffff021916908373ffffffffffffffffffffffffffffffffffffffff160217905550610a33806100616000396000f3fe608060405234801561001057600080fd5b50600436106100575760003560e01c80631f7b6d321461005c578063689e1c031461007a5780636cebad98146100ac5780638da5cb5b146100cc578063ba417156146100ea575b600080fd5b610064610106565b604051610071919061083b565b60405180910390f35b610094600480360381019061008f919061065d565b61010c565b6040516100a3939291906107ef565b60405180910390f35b6100b46102e4565b6040516100c3939291906107ef565b60405180910390f35b6100d4610494565b6040516100e191906107d4565b60405180910390f35b61010460048036038101906100ff919061069e565b6104ba565b005b60045481565b6000818051602081018201805184825260208301602085012081835280955050505050506000915090508060000180546101459061095c565b80601f01602080910402602001604051908101604052809291908181526020018280546101719061095c565b80156101be5780601f10610193576101008083540402835291602001916101be565b820191906000526020600020905b8154815290600101906020018083116101a157829003601f168201915b5050505050908060010180546101d39061095c565b80601f01602080910402602001604051908101604052809291908181526020018280546101ff9061095c565b801561024c5780601f106102215761010080835404028352916020019161024c565b820191906000526020600020905b81548152906001019060200180831161022f57829003601f168201915b5050505050908060020180546102619061095c565b80601f016020809104026020016040519081016040528092919081815260200182805461028d9061095c565b80156102da5780601f106102af576101008083540402835291602001916102da565b820191906000526020600020905b8154815290600101906020018083116102bd57829003601f168201915b5050505050905083565b60018060000180546102f59061095c565b80601f01602080910402602001604051908101604052809291908181526020018280546103219061095c565b801561036e5780601f106103435761010080835404028352916020019161036e565b820191906000526020600020905b81548152906001019060200180831161035157829003601f168201915b5050505050908060010180546103839061095c565b80601f01602080910402602001604051908101604052809291908181526020018280546103af9061095c565b80156103fc5780601f106103d1576101008083540402835291602001916103fc565b820191906000526020600020905b8154815290600101906020018083116103df57829003601f168201915b5050505050908060020180546104119061095c565b80601f016020809104026020016040519081016040528092919081815260200182805461043d9061095c565b801561048a5780601f1061045f5761010080835404028352916020019161048a565b820191906000526020600020905b81548152906001019060200180831161046d57829003601f168201915b5050505050905083565b600560009054906101000a900473ffffffffffffffffffffffffffffffffffffffff1681565b6040518060600160405280848152602001838152602001828152506000846040516104e591906107bd565b9081526020016040518091039020600082015181600001908051906020019061050f929190610552565b50602082015181600101908051906020019061052c929190610552565b506040820151816002019080519060200190610549929190610552565b50905050505050565b82805461055e9061095c565b90600052602060002090601f01602090048101928261058057600085556105c7565b82601f1061059957805160ff19168380011785556105c7565b828001600101855582156105c7579182015b828111156105c65782518255916020019190600101906105ab565b5b5090506105d491906105d8565b5090565b5b808211156105f15760008160009055506001016105d9565b5090565b600061060861060384610887565b610856565b90508281526020810184848401111561062057600080fd5b61062b84828561091a565b509392505050565b600082601f83011261064457600080fd5b81356106548482602086016105f5565b91505092915050565b60006020828403121561066f57600080fd5b600082013567ffffffffffffffff81111561068957600080fd5b61069584828501610633565b91505092915050565b6000806000606084860312156106b357600080fd5b600084013567ffffffffffffffff8111156106cd57600080fd5b6106d986828701610633565b935050602084013567ffffffffffffffff8111156106f657600080fd5b61070286828701610633565b925050604084013567ffffffffffffffff81111561071f57600080fd5b61072b86828701610633565b9150509250925092565b61073e816108de565b82525050565b600061074f826108b7565b61075981856108c2565b9350610769818560208601610929565b610772816109ec565b840191505092915050565b6000610788826108b7565b61079281856108d3565b93506107a2818560208601610929565b80840191505092915050565b6107b781610910565b82525050565b60006107c9828461077d565b915081905092915050565b60006020820190506107e96000830184610735565b92915050565b600060608201905081810360008301526108098186610744565b9050818103602083015261081d8185610744565b905081810360408301526108318184610744565b9050949350505050565b600060208201905061085060008301846107ae565b92915050565b6000604051905081810181811067ffffffffffffffff8211171561087d5761087c6109bd565b5b8060405250919050565b600067ffffffffffffffff8211156108a2576108a16109bd565b5b601f19601f8301169050602081019050919050565b600081519050919050565b600082825260208201905092915050565b600081905092915050565b60006108e9826108f0565b9050919050565b600073ffffffffffffffffffffffffffffffffffffffff82169050919050565b6000819050919050565b82818337600083830152505050565b60005b8381101561094757808201518184015260208101905061092c565b83811115610956576000848401525b50505050565b6000600282049050600182168061097457607f821691505b602082108114156109885761098761098e565b5b50919050565b7f4e487b7100000000000000000000000000000000000000000000000000000000600052602260045260246000fd5b7f4e487b7100000000000000000000000000000000000000000000000000000000600052604160045260246000fd5b6000601f19601f830116905091905056fea264697066735822122090ef6b200c9649707cb5e4114d8ef79ccede9e1086459547bd399fa064f0ccc564736f6c63430008000033",
  "immutableReferences": {},
  "source": "//SPDX-License-Identifier: MIT\r\n\r\npragma solidity ^0.8.0;\r\ncontract Userbc {\r\n\r\n\r\n      struct User{\r\n          \r\n        string  user_id;\r\n        string  hashValue;\r\n        string  datetime;\r\n      }\r\n     \r\n \r\n      mapping(string => User) public users; \r\n   \r\n      User public newUser ;\r\n     \r\n      uint public length;\r\n      address public owner;\r\n      \r\n      \r\n      constructor() {\r\n          \r\n          owner = msg.sender;\r\n      }\r\n      \r\n      \r\n      \r\n      \r\n      function createNewUser(string memory user_id,string memory hashValue,string memory datetime) public  {\r\n\r\n        users[user_id]=User(user_id,hashValue,datetime);\r\n          \r\n      }  \r\n}",
  "sourcePath": "C:\\Users\\DELL\\Desktop\\bc feednatural\\blockchain feednatural\\backend\\contracts\\user.sol",
  "compiler": {
    "name": "solc",
    "version": "0.8.0+commit.c7dfd78e.Emscripten.clang"
  },
  "schemaVersion": "3.4.4",
  "updatedAt": "2022-06-29T09:54:51.301Z",
  "networkType": "ethereum",
  "devdoc": {
    "kind": "dev",
    "methods": {},
    "version": 1
  },
  "userdoc": {
    "kind": "user",
    "methods": {},
    "version": 1
  }
}